:100000000C9474000C949C000C949C000C949C0028
:100010000C949C000C949C000C949C000C949C00F0
:100020000C949C000C949C000C949C000C949C00E0
:100030000C949C000C949C000C949C000C949C00D0
:100040000C94D4030C949C000C94CE000C94A80047
:100050000C949C000C949C000C949C000C949C00B0
:100060000C9414050C949C00160A470ACB0A310A1A
:10007000780C0E0D0E0D610A0E0D0E0D0E0D0E0DEF
:100080000E0DA80A0E0D0E0D0E0D0E0DE2090E0D31
:100090000E0D0E0DF90900000000240027002A00B3
:1000A00000000000250028002B00040404040404C0
:1000B0000404020202020202030303030303010217
:1000C00004081020408001020408102001020408E6
:1000D00010200000000800020100000304070000D7
:1000E000000000000000110D11241FBECFEFD8E06A
:1000F000DEBFCDBF26E0A6E7B5E001C01D92AB3D57
:10010000B207E1F715E0A0E0B1E0E2EBFBE102C0ED
:1001100005900D92A637B107D9F710E0C4E7D0E0FB
:1001200004C02197FE010E94B80DC337D107C9F75B
:100130000E9436080C94D70D0C94000087E296E0DC
:100140000E94310121E0892B09F420E0822F0895DB
:100150001F920F920FB60F9211242F933F934F933C
:100160005F936F937F938F939F93AF93BF93EF931F
:10017000FF9387E296E00E942902FF91EF91BF91E1
:10018000AF919F918F917F916F915F914F913F912F
:100190002F910F900FBE0F901F9018951F920F92E6
:1001A0000FB60F9211242F938F939F93EF93FF938A
:1001B000E0913706F09138068081E0913D06F0919C
:1001C0003E0682FD12C09081809140068F5F8F7342
:1001D00020914106821751F0E0914006F0E0E95D80
:1001E000F94F958F8093400601C08081FF91EF9178
:1001F0009F918F912F910F900FBE0F901F90189588
:10020000FC01538D448D252F30E0842F90E0821B1C
:10021000930B541710F0CF96089501970895FC01A1
:10022000918D828D981761F0828DDF01A80FB11D2D
:100230005D968C91928D9F5F9F73928F90E0089551
:100240008FEF9FEF0895FC01918D828D981731F00B
:10025000828DE80FF11D858D90E008958FEF9FEF5F
:100260000895FC01918D228D892F90E0805C9F4F35
:10027000821B91098F739927089580E090E0892B64
:1002800029F00E949E0081110C94000008953FB750
:10029000F8948091170690911806A0911906B091D4
:1002A0001A0626B5A89B05C02F3F19F00196A11D7F
:1002B000B11D3FBFBA2FA92F982F8827820F911DFC
:1002C000A11DB11DBC01CD0142E0660F771F881F43
:1002D000991F4A95D1F7089585ED8093BC008091D0
:1002E000BC0084FDFCCF1092780508954091AB05C9
:1002F000262F30E0240F311D21323105DCF420910E
:1003000078052430C9F4FC0180E090E0861758F4A9
:100310003091AB052191DC01A757BA4FA30FB11D56
:100320002C930196F3CF8091AB05680F6093AB05DA
:1003300080E0089581E0089582E00895089581E0C5
:1003400090E030917C0520917B05321710F480E01D
:1003500090E0919581959109089580917C05909107
:100360007B05891730F48F5F80937C0580E090E0F7
:1003700008958FEF9FEF089580917B0590E0209185
:100380007C05821B91090895CF92DF92EF92FF9234
:100390000F931F93CF93DF937C01262F972F8A0112
:1003A0008091F405882391F0C62FD72F6E01C40EDB
:1003B000D51ECC15DD0571F06991D701ED91FC9149
:1003C0000190F081E02DC7010995F3CF642F822FB2
:1003D0000E947601C801DF91CF911F910F91FF908C
:1003E000EF90DF90CF900895CF93DF931F92CDB71A
:1003F000DEB769832091F4052223D1F0209179059D
:10040000203240F021E030E0FC013383228380E0A1
:1004100090E015C080917A05E82FF0E0EB50FA4F9C
:10042000998190838F5F80937A058093790505C0C9
:1004300061E0CE0101960E94760181E090E00F908C
:10044000DF91CF910895089580E090E008950E9493
:10045000D20DFC01848DDF01A80FB11DA35ABF4F3F
:100460002C91848D90E001968F739927848FA689B3
:10047000B7892C93A089B1898C9180648C93938DDA
:10048000848D981306C00288F389E02D80818F7DCA
:1004900080830895EF92FF920F931F93CF93DF9382
:1004A000EC0181E0888F9B8D8C8D981305C0E889C5
:1004B000F989808185FD24C0F62E0B8D10E00F5F39
:1004C0001F4F0F731127E02E8C8DE8120CC00FB652
:1004D00007FCFACFE889F989808185FFF5CFCE0145
:1004E0000E942902F1CF8B8DFE01E80FF11DE35A26
:1004F000FF4FF0820B8FEA89FB898081806207C001
:10050000EE89FF896083E889F9898081806480832E
:1005100081E090E0DF91CF911F910F91FF90EF90DC
:100520000895CF93DF93EC01888D8823C9F0EA8981
:10053000FB89808185FD05C0A889B9898C9186FDDC
:100540000FC00FB607FCF5CF808185FFF2CFA889D9
:10055000B9898C9185FFEDCFCE010E942902E7CFAA
:10056000DF91CF91089590E0FC01EE52FF4F34915E
:10057000FC01E254FF4F2491FC01E655FF4FE4914A
:10058000EE2309F43BC0332339F1333091F038F4D2
:100590003130A9F0323001F584B58F7D12C037308B
:1005A00091F03830A1F03430B9F4809180008F7D23
:1005B00003C0809180008F77809380000DC084B548
:1005C0008F7784BD09C08091B0008F7703C0809180
:1005D000B0008F7D8093B000F0E0EE0FFF1FE0567B
:1005E000FF4FA591B4918FB7F894EC91611103C0BE
:1005F00020952E2301C02E2B2C938FBF0895CF93CF
:10060000DF9390E0FC01E254FF4F2491FC01E6559A
:10061000FF4F8491882361F190E0880F991FFC01BE
:10062000EA56FF4FC591D491FC01E056FF4FA591CA
:10063000B491611109C09FB7F894888120958223F5
:100640008883EC912E230BC0623061F49FB7F8943D
:100650003881822F809583238883EC912E2B2C93D5
:100660009FBF06C08FB7F894E8812E2B28838FBFD9
:10067000DF91CF9108951F93CF93DF93182FEB0154
:1006800061E00E94FF02209711F460E004C0CF3FB8
:10069000D10539F461E0812FDF91CF911F910C9446
:1006A000B302E12FF0E0EE52FF4FE491E330F9F0B6
:1006B00048F4E130B9F0E230A1F584B5806284BD40
:1006C000C8BD34C0E730E9F0E83019F1E43049F54D
:1006D00080918000806280938000D0938B00C093D3
:1006E0008A0024C084B5806884BDC7BD1FC08091C6
:1006F0008000806880938000D0938900C093880038
:1007000015C08091B00080688093B000C093B300A2
:100710000DC08091B00080628093B000C093B4009F
:1007200005C0C038D1050CF0B5CFAFCFDF91CF9168
:100730001F9108958F929F92AF92BF92CF92DF92B6
:10074000EF92FF926B017C010E9447014B015C011B
:10075000C114D104E104F104F1F00E944701DC016D
:10076000CB0188199909AA09BB09883E9340A105C4
:10077000B10570F321E0C21AD108E108F10888EE52
:10078000880E83E0981EA11CB11CC114D104E104A1
:10079000F10419F7DDCFFF90EF90DF90CF90BF907D
:1007A000AF909F908F9008951F920F920FB60F9267
:1007B00011242F933F938F939F93AF93BF93809177
:1007C0001B0690911C06A0911D06B0911E0630914B
:1007D000160623E0230F2D3720F40196A11DB11D2D
:1007E00005C026E8230F0296A11DB11D2093160611
:1007F00080931B0690931C06A0931D06B0931E06C3
:100800008091170690911806A0911906B0911A06CA
:100810000196A11DB11D8093170690931806A09311
:100820001906B0931A06BF91AF919F918F913F9196
:100830002F910F900FBE0F901F901895CF93DF93BD
:10084000EC0160E08A810E94B30261E08A810E942B
:10085000FF0260E088810E94B30261E088810E940B
:10086000FF0261E089810E94FF0261E08A810E94AB
:10087000B3028BE090E00197F1F7DF91CF910895FB
:10088000CF93FC01C48121E02093F405C0931506A9
:1008900010927A05109279058385682B84EC96E096
:1008A0000E94F40180917905813208F046C0909150
:1008B00078059111FCCF92E09093780591E09093A8
:1008C00077059FEF9093F3051092F2058093F10561
:1008D000A5EFB5E021ED35E0F9019E2F921B9817A9
:1008E00018F49D919193F9CF1092D0058091D00585
:1008F000CC0FC82BC093D00580917605813061F470
:10090000109276058091D0058093BB008091BC0049
:1009100083FDF8CF85EC01C085EE8093BC0080910B
:1009200078058230E1F38091F3058F3F31F08091BB
:10093000F305803211F08091F30510927A05109240
:1009400079051092F405CF9108950F931F93CF93DB
:100950008C01C62F0E9440046C2F6460C8010E9465
:1009600040046C2F6B7FC8010E94400483EC90E030
:100970000197F1F7CF911F910F910895FF920F9377
:100980001F93CF93DF931F92CDB7DEB78C01F62E66
:10099000962F907F692F642BC80149830E94A5047C
:1009A00080E1F89EB00111244981642BC8010F90A9
:1009B000DF91CF911F910F91FF900C94A50441E01E
:1009C0000E94BE0481E090E00895CF93DF93CDB7FD
:1009D000DEB728970FB6F894DEBF0FBECDBF9C01DF
:1009E00088E0ECE0F1E0DE01119601900D928A952D
:1009F000E1F7F9018085841710F44FEF480FFE01ED
:100A00003196E40FF11DE40FF11D9081690F6068CC
:100A100040E0C90128960FB6F894DEBF0FBECDBFE7
:100A2000DF91CF910C94BE041F920F920FB60F92DC
:100A300011242F933F934F935F936F937F938F93E3
:100A40009F93AF93BF93EF93FF938091B900887FFB
:100A5000803609F49CC068F5883209F45BC090F4D4
:100A6000803109F454C038F4882309F4F6C0883082
:100A700009F44DC0F6C0883109F44CC0803209F445
:100A80005DC0EFC0803409F468C048F4803309F4D5
:100A900055C0883309F0E5C08093F305D8C0803590
:100AA00009F44FC0883509F45DC0883409F0D9C015
:100AB000D6C0883909F4C7C0A8F4883709F467C0DC
:100AC00038F4883609F463C0803709F460C0C9C0BF
:100AD000883809F4B8C0803909F45FC0803809F05B
:100AE000C0C05BC0803B09F486C038F4803A09F48A
:100AF00066C0883A09F47FC0B4C0803C09F4A7C03E
:100B0000883C09F4A4C0883B09F48AC0AAC080913B
:100B1000D00510C09091F2058091F105981770F5FD
:100B2000E091F20581E08E0F8093F205F0E0EF5244
:100B3000FA4F80818093BB0085EC86C08093F305DB
:100B40008EC0E091F20581E08E0F8093F2058091D6
:100B5000BB00F0E0EF52FA4F80839091F205809154
:100B6000F1056EC0E091F20581E08E0F8093F205F1
:100B70008091BB00F0E0EF52FA4F808380917705BF
:100B800081116DC081E08093760584EA61C083E0C5
:100B9000809378051092CF05CFCF8091CF0580321A
:100BA00008F051C0E091CF0581E08E0F8093CF0512
:100BB0008091BB00F0E0E155FA4F8083BDCF85EC1A
:100BC0008093BC00109278058091CF05803230F47C
:100BD000E091CF05F0E0E155FA4F10826091CF052A
:100BE00070E0E091AD05F091AE058FEA95E00995D2
:100BF0001092CF0536C084E0809378051092AC0542
:100C00001092AB05E091A905F091AA050995809194
:100C1000AB05811105C081E08093AB051092890579
:100C2000E091AC0581E08E0F8093AC05F0E0E757D2
:100C3000FA4F80818093BB009091AC058091AB0509
:100C4000981708F479CF85E88093BC000AC085EC3A
:100C50008093BC001092780504C01092F3050E94A6
:100C60006C01FF91EF91BF91AF919F918F917F9117
:100C70006F915F914F913F912F910F900FBE0F9009
:100C80001F9018952FB7F89480911B0690911C0621
:100C9000A0911D06B0911E062FBF80932F06909342
:100CA0003006A0933106B0933206E0912706F0910A
:100CB00028060484F585E02D87E296E0099597FFE4
:100CC00026C02FB7F89480911B0690911C06A09126
:100CD0001D06B0911E062FBF40912F065091300681
:100CE0006091310670913206841B950BA60BB70BF1
:100CF00040912B0650912C0660912D0670912E0686
:100D000084179507A607B70780F28FEF9FEF089526
:100D1000CF92DF92EF92FF920F931F93CF93DF93C7
:100D20006C017A018B01C0E0D0E0CE15DF0589F0BF
:100D3000D8016D918D01D601ED91FC910190F0816A
:100D4000E02DC6010995892B11F47E0102C0219680
:100D5000ECCFC701DF91CF911F910F91FF90EF90E2
:100D6000DF90CF900895EF92FF920F931F93CF9350
:100D7000DF938C01C0E0D0E0E62EF12CB7010C2E01
:100D800002C0759567950A94E2F76170F801818158
:100D90000E94B30261E0F80180810E94B30260E02A
:100DA000F80180810E94B3022196C830D10531F745
:100DB000DF91CF911F910F91FF90EF9008950F93C6
:100DC0001F93CF93DF93EC018B010E941E04B801A7
:100DD0006E7FCE010E94B30660E0CE010E94B30692
:100DE00060E08A810E94B3028BE090E00197F1F706
:100DF000DF91CF911F910F910895CF93DF9380EDF5
:100E000096E00E941E046EEB80ED96E00E94B30611
:100E1000CFE1D6E0699180ED96E00E94B30686E0CE
:100E2000C732D807B9F760E08091D2060E94B302BA
:100E30008BE090E00197F1F7DF91CF910895FF9259
:100E40000F931F93CF93DF9300D000D0CDB7DEB7C1
:100E50000E944206FC0197FD11C08D32910591F070
:100E6000C0970A9778F0E0912706F091280602844F
:100E7000F385E02D87E296E00995EACF60E070E027
:100E8000CB014CC020E030E0A901F12CE130F105AC
:100E9000F1F0ED32F105C9F0CF01C0970A97B8F42F
:100EA000AAE0B0E00E945C0D8F01FF0F220B330B14
:100EB000DC01CB01800F911FA21FB31F9C01AD016C
:100EC000205331094109510902C0FF24F394E091F4
:100ED0002706F09128060284F385E02D87E296E04C
:100EE00029833A834B835C8309950E944206FC0167
:100EF000C09729813A814B815C810A9738F2E130B1
:100F0000F10521F2FF2041F066277727CB01621B14
:100F1000730B840B950B02C0CA01B9010F900F909F
:100F20000F900F90DF91CF911F910F91FF90089537
:100F30006115710579F0FB0101900020E9F7319707
:100F4000AF01461B570BDC01ED91FC910280F38150
:100F5000E02D099480E090E00895CF93DF93BC01E9
:100F600087E296E00E949807EC0162EF73E087E267
:100F700096E00E9498078C0F9D1FDF91CF910895F6
:100F80008F929F92AF92BF920F931F93CF93DF9355
:100F9000CDB7DEB7A1970FB6F894DEBF0FBECDBFB9
:100FA00019A2423008F44AE08E010F5D1F4F842ED3
:100FB000912CA12CB12CA50194010E94960DE62F35
:100FC000B901CA0101501109EA3014F4E05D01C011
:100FD000E95CD801EC93232B242B252B61F7B80176
:100FE00087E296E00E949807A1960FB6F894DEBFBC
:100FF0000FBECDBFDF91CF911F910F91BF90AF90EA
:101000009F908F900895CF92DF92EF92FF92CF93AF
:10101000DF936B017C01E0912706F0912806019097
:10102000F081E02D6DE287E296E00995EC016627FC
:101030007727CB016C197D098E099F094AE00E9430
:10104000C0078C0F9D1FDF91CF91FF90EF90DF9035
:10105000CF900895BC01990F880B990B97FD0C94C4
:1010600003084AE00C94C0070C949807CF93DF93D1
:10107000CDB7DEB72C970FB6F894DEBF0FBECDBF4D
:10108000789484B5826084BD84B5816084BD85B563
:10109000826085BD85B5816085BD80916E0081606F
:1010A00080936E0010928100809181008260809315
:1010B0008100809181008160809381008091800017
:1010C0008160809380008091B10084608093B10042
:1010D0008091B00081608093B00080917A0084603C
:1010E00080937A0080917A00826080937A00809168
:1010F0007A00816080937A0080917A008068809382
:101100007A001092C1001C821B8284E091E09A83D5
:10111000898387E28D8380E18A8782E08B871C86C2
:1011200010927C0510927B0510927A051092790539
:101130001092780581E0809377051092760561E042
:1011400082E10E94B30261E083E10E94B3028091D8
:10115000B9008E7F8093B9008091B9008D7F809314
:10116000B90088E48093B80085E48093BC001E82B7
:101170008B85823010F098E09E83898762E370E06F
:1011800080E090E00E949A036C85CE0101960E9457
:10119000400468EE73E080E090E00E949A0360E310
:1011A000CE0101960E94A5040BE416E4C801019744
:1011B000F1F760E3CE0101960E94A504C8010197F2
:1011C000F1F760E3CE0101960E94A50483E592E069
:1011D0000197F1F760E2CE0101960E94A5046E81AD
:1011E000606240E0CE0101960E94BE0484E08F83DD
:1011F00040E06CE0CE0101960E94BE0440E061E058
:10120000CE0101960E94BE040BE31FE1C8010197C5
:10121000F1F782E0F82EF88640E066E0CE01019614
:101220000E94BE0440E062E0CE0101960E94BE042E
:10123000C8010197F1F788E08C8760E0CE01019644
:101240000E94400440E062E0CE0101960E94E50465
:1012500064E471E0CE0101960E9434086AEF70E008
:1012600080E090E00E949A0341E061E0CE010196A7
:101270000E94E50460E571E0CE0101960E94340809
:1012800068E873E180E090E00E949A0340E061E04A
:10129000CE0101960E94BE04C8010197F1F740E01B
:1012A00060E0CE0101960E94E5046FE571E0CE0199
:1012B00001960E94340841E060E0CE0101960E9450
:1012C000E5046FE671E0CE0101960E943408E091DA
:1012D0003706F0913806F082E0913306F09134063B
:1012E0001082E0913506F09136068FEC80831092E3
:1012F0003F06E0913B06F0913C0686E08083E0915A
:101300003906F0913A06808180618083E091390648
:10131000F0913A06808188608083E0913906F091EF
:101320003A06808180688083E0913906F0913A0620
:1013300080818F7D808361E082E00E94FF0261E016
:1013400084E00E94FF0261E087E00E94FF0261E00A
:1013500088E00E94FF0260E080E00E94FF028EE7CA
:1013600091E00E94AD0780EA91E00E94AD0782EB18
:1013700091E00E94AD078EEC91E00E94AD0796E9E6
:10138000C92ED12C23EEA22E27E0B22E01E010E0D0
:101390003FE1E32E36E0F32E48E0642E5AE0752E4E
:1013A0006AE0862E912C87E296E00E940F01FC01F4
:1013B000E154F109E731F10508F030C3EC5CFF4F6F
:1013C0000C94B80D4090870550908805B2018AE0D2
:1013D0000E943B03B20185E00E943B0360E087E08E
:1013E0000E94B30260E082E00E94B30261E088E004
:1013F00064C04090870550908805B2018AE00E9441
:101400003B03B20185E00E943B0361E082E00E9461
:10141000B30261E087E00E94B30260E088E00E94CE
:10142000B30260E084E00E94B302F8C240908705F6
:1014300050908805B2018AE00E943B03B20185E02A
:101440000E943B0360E084E00E94B30260E087E01A
:101450000E94B30261E088E00E94B30261E082E092
:10146000E2CF4090870550908805B2018AE00E9443
:101470003B03B20185E00E943B0361E087E00E94EC
:10148000B30260E088E00E94B30260E015C04090C3
:10149000870550908805B2018AE00E943B03B201A3
:1014A00085E00E943B0361E087E00E94B30261E0B7
:1014B00088E00E94B30261E082E00E94B30261E032
:1014C000B1CF84EF93E00E94AD0784EF93E00E94D8
:1014D000AD0785EE91E00E94AD0788E392E00E949F
:1014E000AD078BE892E00E94AD0788E392E00E948E
:1014F000AD078FED92E00E94AD0785EE91E00E946E
:10150000AD0783E393E00E94AD0784E693E00E9479
:10151000AD078AE793E00E94AD0785E893E00E945B
:10152000AD078DE893E00E94AD0788E993E00E9443
:10153000AD0781EA93E00E94AD078FEA93E00E9435
:10154000AD0787EC93E00E94AD0784EF93E064C29F
:1015500083EE93E00E94AD0787E296E00E9431019E
:10156000892BD1F30E941F0770938805609387052C
:10157000072E000C880B990B97FF03C00E940308ED
:1015800003C04AE00E94C00762EF73E087E296E082
:101590000E94980743C285EF93E00E94AD0787E25F
:1015A00096E00E943101892BD1F30E941F077093AE
:1015B000880560938705683C71050CF06EC163E097
:1015C00074E087E296E00E9434088091870590914C
:1015D00088050E942A0884EF93E00E94AD076AE51F
:1015E00070E080E090E00E949A0386E194E00E941F
:1015F000AD0789E194E00E94AD0787E296E00E9482
:101600003101892BD1F30E941F07709386056093E7
:10161000850586E194E00E94AD078CE294E00E948B
:10162000AD0787E296E00E943101892BD1F70E9435
:101630001F0770938405609383056C3071050CF06F
:101640001FC186E194E00E94AD0782E494E00E940D
:10165000AD0787E296E00E943101892BD1F30E9409
:101660001F0770938205609381056F3171050CF03F
:10167000FAC086E194E00E94AD0785E594E00E94FF
:10168000AD0787E296E00E943101892BD1F30E94D9
:101690001F077093800560937F05683171050CF01A
:1016A000D5C086E194E00E94AD078FE594E00E94EA
:1016B000AD0787E296E00E943101892BD1F30E94A9
:1016C0001F0770937E0560937D056C3371050CF0E8
:1016D000B0C086E194E00E94AD074091850550912D
:1016E000860530918305E0918105F0917F05809119
:1016F0007D05D701962D1D929A95E9F7672D0E94D9
:10170000760D609120066078282F27702295207F23
:10171000962B922B909320068F2F672D0E94760D8B
:10172000282F80912106807C23702295207F982B82
:10173000922B909321068E2F0E94760D282F809158
:101740002206807C23702295207F982B922B9093E9
:101750002206832F0E94760D20912306207F922B54
:1017600080FB94F99093230680912406887F8660FD
:1017700080932406CA01805D9740B4010E94820DC7
:101780006295607F8F70682B609325060E94FD062E
:1017900089E694E00E94AD0784EF93E00E94AD07D4
:1017A00089EE93E00E94AD078091870590918805AE
:1017B0000E942A0884EF93E00E94AD0788E794E036
:1017C0000E94AD0763E874E087E296E00E94340867
:1017D00080918305909184050E942A0863E874E053
:1017E00087E296E00E9434088091850590918605F5
:1017F0000E942A0865E874E087E296E00E943408B7
:1018000080917F05909180050E942A0868E874E025
:1018100087E296E00E94340880917D0590917E05D4
:101820000E942A0884EF93E00E94AD078AE894E0C2
:10183000F3C08AED94E00E94AD0780EE94E00E9430
:10184000AD0710927E0510927D054FC08AED94E0A1
:101850000E94AD0780EE94E00E94AD0710928005D3
:1018600010927F0542C08AED94E00E94AD0780EEA1
:1018700094E00E94AD07109282051092810535C058
:101880008AED94E00E94AD0780EE94E00E94AD07DF
:10189000109284051092830528C06EEE74E087E2F2
:1018A00096E00E9434086CEB72E080E090E00E94C9
:1018B0009A0384EF93E00E94AD078AED94E00E94C2
:1018C000AD076AE570E080E090E00E949A0380EE48
:1018D00094E00E94AD07109288051092870568EC8D
:1018E00070E080E090E00E949A0386E194E094C06A
:1018F0008DEF94E00E94AD07D0928805C0928705D5
:10190000B0928605A0928505109384050093830507
:1019100010938205009381051093800500937F0545
:1019200010937E0500937D05D701E62D1D92EA9563
:10193000E9F780912006807F816080932006809166
:101940002106807F81608093210680912206807F1E
:1019500081608093220680912306807F816080933E
:10196000230680912406887F86608093240689E17F
:10197000809325060E94FD0689E694E00E94AD074B
:1019800084EF93E00E94AD0789EE93E00E94AD07DB
:1019900080918705909188050E942A0884EF93E042
:1019A0000E94AD0788E794E00E94AD0763E874E009
:1019B00087E296E00E943408809183059091840527
:1019C0000E942A0863E874E087E296E00E943408E7
:1019D00080918505909186050E942A0865E874E04B
:1019E00087E296E00E94340880917F0590918005FF
:1019F0000E942A0868E874E087E296E00E943408B2
:101A000080917D0590917E050E942A0884EF93E0E5
:101A10000E94AD0788E195E00E94AD070E943D015C
:101A2000C2CCE7E2F6E01382128288EE93E0A0E0F7
:101A3000B0E084839583A683B78328E131E03183C6
:101A4000208325EC30E03587248724EC30E037878D
:101A5000268720EC30E0318B208B21EC30E0338B7B
:101A6000228B22EC30E0358B248B26EC30E0378B58
:101A7000268B118E128E138E148EE4ECF6E01382F8
:101A8000128284839583A683B7838AE291E091834F
:101A90008083E0EDF6E08DE0808383E0818381E068
:101AA00082836EE870E0CF010E94DF0660E970E09B
:101AB00080ED96E00C94DF060E94670DA59F900DC7
:101AC000B49F900DA49F800D911D11240895A29F95
:101AD000B001B39FC001A39F700D811D1124911D02
:101AE000B29F700D811D1124911D0895991B79E0FD
:101AF00004C0991F961708F0961B881F7A95C9F79E
:101B00008095089597FB072E16F4009407D077FD73
:101B100009D00E94BE0D07FC05D03EF4909581953A
:101B20009F4F0895709561957F4F0895A1E21A2EF9
:101B3000AA1BBB1BFD010DC0AA1FBB1FEE1FFF1F71
:101B4000A217B307E407F50720F0A21BB30BE40BC1
:101B5000F50B661F771F881F991F1A9469F7609508
:101B60007095809590959B01AC01BD01CF010895C2
:101B7000EE0FFF1F0590F491E02D0994AA1BBB1BEB
:101B800051E107C0AA1FBB1FA617B70710F0A61B7D
:101B9000B70B881F991F5A95A9F780959095BC019E
:101BA000CD01089581E090E0F8940C94D70DF8945D
:021BB000FFCF65
:101BB20000000000DF048806240223020000400027
:101BC20014005400000000004A028806000191023D
:101BD20031010F01230100000000F401C4012402BD
:101BE2009E01BC01AD019F01000000002702880692
:101BF200240223024D6174656A204D6F6B72790075
:101C02004255494C4420302E3920474E5520004938
:101C120070203139322E3136382E302E3137007065
:101C22006F72742031383830202047504C00416B9D
:101C32006F20707276C3BA20766563206D75736902
:101C420073206E6173746176697420636667200025
:101C520050726520706F6D6F632073746C616320C6
:101C6200480050726520706F6C6F6175746F6D61A2
:101C72007469636B75207374616C632043005072E6
:101C8200652064656661756C746E75207374616C31
:101C920063204520002A2A2A2A2A2A2A2A2A2A2A8C
:101CA2002A2A2A2A2A2A2A2A2A2A2A2A2A2A2A2A92
:101CB2002A2A2A2A2A2A2A2A2A2A2A2A2A2A2A2A82
:101CC2002A2A2A2A2A2A2A2A2A2A2A2A2A2A2A2A72
:101CD2002A2A2A2A2A2A2A2A2A2A2A2A2A2A2A2A62
:101CE2002A2A2A2A2A2A2A002A2A202020202020B8
:101CF20020202020202020202020202020202020E2
:101D020020202020202020202020202020202020D1
:101D120020202020202020202020202020202020C1
:101D220020202020202020202020202020202020B1
:101D320020202020202020202A2A002A2A20202099
:101D4200474E552047504C204461736B616D6120B2
:101D52004A6F6B6B696520323031382F3139202060
:101D6200202020C5A0746172743D31362E312E328E
:101D7200303138202020204275696C6420302E35A5
:101D8200202020204C545320202020202A2A002AC0
:101D92002A20202020202020202020202020202037
:101DA2002020202020202020202020202020202031
:101DB2002020202020202020202020202020202021
:101DC2002020202020202020204D6174656A204D93
:101DD2006F6B72C3BD2020202020202020202020D5
:101DE2002A2A0050726920706973616E69207361DA
:101DF20020726F7A6C6973756A75206D616C6520EB
:101E0200612076656C6B65207069736D656E61200B
:101E12003A2920005AC3A16B6C61646E652070720E
:101E2200C3AD6B617A79203A200057202D646F7020
:101E3200657264750041202D6C61766F0053202D10
:101E4200637576616E69650044202D707261766FEC
:101E52000043202D6175746F636F6E66696700546D
:101E6200202D20556BC3A1C5BE65207265616C6EC5
:101E7200692063617320004E6F64652D7265642072
:101E8200696465206E6120706F727465203A313822
:101E92003838005A6164616A20727963686C6F73C2
:101EA20074000D0A005A6164616A20727963686C79
:101EB2006F740054766F6A6120727963686C6F7315
:101EC20074206A6520004F4B005A6164616A206188
:101ED2006B7475616C6E6920726F6B005A6164611C
:101EE2006A20616B7475616C6E69206D65736961DE
:101EF20063005A6164616A20616B7475616C6E691A
:101F02002064656E005A6164616A20686F64005AD9
:101F12006164616A206D696E0052656B61706974FB
:101F2200756CC3A163696100446174756D2020639F
:101F32006173002F002020003A005673656B6F20FA
:101F42006A65206E6173746176656E652074657270
:101F5200617A20737461636920697374206C656EA1
:101F6200206E612072706933206E6120706F72740E
:101F72006520313838302061206970203139322EA5
:101F82003136382E302E323220004552524F520016
:101F92005265636F6E6669677572617465004D6143
:101FA20078696D756D206A6520323030005A61643F
:101FB200616C2073692064656661756C746E75204E
:101FC2006D6F7A6E6F7374005673656B6F206A65FE
:101FD200206E6173746176656E6520746572617AD4
:101FE20020737461636920697374206C656E206E5E
:101FF200612072706933206E6120706F7274652087
:10200200313838302061206970203139322E313632
:10201200382E302E32322075206D6E6120646F6D45
:0620220061203A292000B4
:00000001FF
